:100000000C942A000C9434000C9434000C943400AA
:100010000C9434000C9434000C9434000C94340090
:100020000C9434000C9434000C9434000C94340080
:100030000C9434000C9434000C9434000C94340070
:100040000C9434000C9434000C9434000C94340060
:100050000C94340011241FBECFE5D8E0DEBFCDBF25
:100060000E9436000C9461000C94000080E381BB78
:100070008FB5826A8FBD8EB58A618EBD8FE19EE499
:1000800097BD86BD9BBD8ABD2FEF81E19AE72150C8
:1000900080409040E1F700C0000087EE93E09BBDF8
:1000A0008ABD2FEF83ED90E3215080409040E1F72F
:1000B00000C000008FEC97E09BBD8ABD80E090E01F
:0600C0000895F894FFCF43
:00000001FF
