S01700007261636B5F70696E696F6E5F5049442E7372656344
S113000045C0000053C0000051C000004FC00000B4
S11300104DC000004BC0000049C0000047C00000B4
S113002045C0000043C0000041C000003FC00000C4
S11300303DC000003BC0000039C0000037C00000D4
S113004035C0000033C0000031C000002FC00000E4
S11300502DC000004DC1000029C0000027C00000D1
S113006025C0000023C0000021C000001FC0000004
S11300701DC000001BC0000019C0000017C0000014
S113008015C0000013C0000011C0000011241FBEE1
S1130090CFEFD0E1DEBFCDBF21E0A0E0B1E001C0F1
S11300A01D92A930B207E1F7BAD0F3C3A9CF0097E4
S11300B041F0EFECF7E03197F1F700C00000019751
S11300C0C1F708954F925F926F927F928F929F92A1
S11300D0AF92BF92CF92DF92EF92FF926B017C01BD
S11300E08090040190900501A0900601B090070152
S11300F020E030E048EC52E42BD32B013C012AE011
S113010037ED43E25CE3C501B40122D39B01AC01AA
S1130110C301B20166D12B013C0120910001309151
S113012001014091020150910301C701B60158D168
S11301302CEA35EC47E257E30BD39B01AC01C30136
S1130140B2014FD12B013C01A5019401C701B601B5
S113015048D1609304017093050180930601909344
S11301600701C0920001D0920101E0920201F092D5
S11301700301C301B201FF90EF90DF90CF90BF90D5
S1130180AF909F908F907F906F905F904F90089565
S1130190CF92DF92EF92FF926B017C0166B577B547
S11301A080E090E01FD2A70196017FD1882344F418
S11301B066B577B580E090E015D26B017C010BC089
S11301C020E030E0A901C701B6016FD188231CF4F7
S11301D0C12CD12C7601C701B601D8D17BBD6ABD33
S11301E0FF90EF90DF90CF9008958FEF87BB84BB93
S11301F060E08CE090E08CD078948FB58A6A8FBDF3
S11302008EB589618EBD81E191E197BD86BD86B1D0
S11302108E6886B987B1806E87B9369A0895E5DF0E
S113022082E085BBD2E0C1E06091080170E080E02B
S113023090E0DAD128E23CE241EF59E389D29B0114
S1130240AC0160E070E080E89FE333D14B015C01D6
S113025020E030E040EF51E4C3D06B017C0120E0AA
S113026030E040EA50EC21D1882314F4C5BB0AC025
S113027020E030E040EA50E4C701B60165D2181628
S11302800CF4D5BB8AE090E012DF20E030E040EAD5
S113029050E4C701B60109D1882364F420E030E0BA
S11302A040EA50ECC701B6014FD218161CF41BBC2F
S11302B01ABC04C0C701B60105DF6ADFC701B60175
S11302C060D140E051D060E080E240D0C501B4018B
S11302D058D140E049D060E080E238D06AB57BB5BF
S11302E080E090E040E040D060E08DE02FD09CCFF3
S11302F01F920F920FB60F9211248F9385B18093A2
S11303000801369A8F910F900FBE0F901F90189589
S11303107894662379F09093980080939900EAE9A1
S1130320F0E0808188618083EDE9F0E0808186607F
S1130330808308959093900089B98AB188618AB9BD
S1130340E5E9F0E08081866080830895662341F0CA
S1130350EBE9F0E0908195FFFDCF80939C00089538
S11303605D9BFECF8CB90895BF92CF92DF92EF923E
S1130370FF920F931F93CF93DF936B017C01C42FE4
S113038099235CF4642F8DE2E1DFF094E094D0943F
S1130390C094C11CD11CE11CF11C8AE0C816D10414
S11303A0E104F1047CF0C701B6012AE030E040E04A
S11303B050E031D269017A01B62E4C2FC701B60143
S11303C0D3DFCB2C6C2F80E38C0DC0DFDF91CF917A
S11303D01F910F91FF90EF90DF90CF90BF90089501
S11303E05058BB27AA270ED075C166D130F06BD107
S11303F020F031F49F3F11F41EF45BC10EF4E0953C
S1130400E7FB51C1E92F77D180F3BA17620773076D
S11304108407950718F071F49EF58FC10EF4E095EA
S11304200B2EBA2FA02D0B01B90190010C01CA01AA
S1130430A0011124FF27591B99F0593F50F4503E55
S113044068F11A16F040A22F232F342F4427585F47
S1130450F3CF469537952795A795F0405395C9F75F
S11304607EF41F16BA0B620B730B840BBAF0915017
S1130470A1F0FF0FBB1F661F771F881FC2F70EC0B6
S1130480BA0F621F731F841F48F487957795679589
S1130490B795F7959E3F08F0B3CF9395880F08F072
S11304A09927EE0F979587950895D9D008F481E0A0
S11304B008950CD00FC107D140F0FED030F021F4E4
S11304C05F3F19F0F0C0511139C1F3C014D198F352
S11304D09923C9F35523B1F3951B550BBB27AA27C1
S11304E062177307840738F09F5F5F4F220F331F33
S11304F0441FAA1FA9F333D00E2E3AF0E0E830D0FF
S113050091505040E695001CCAF729D0FE2F27D001
S1130510660F771F881FBB1F261737074807AB07CF
S1130520B0E809F0BB0B802DBF01FF2793585F4F44
S11305302AF09E3F510568F0B6C000C15F3FECF35E
S1130540983EDCF3869577956795B795F7959F5F09
S1130550C9F7880F911D9695879597F90895E1E05D
S1130560660F771F881FBB1F621773078407BA07BC
S113057020F0621B730B840BBA0BEE1F88F7E09517
S1130580089504D06894B111D9C00895BCD088F0FE
S11305909F5790F0B92F9927B751A0F0D1F0660F6B
S11305A0771F881F991F1AF0BA95C9F712C0B13086
S11305B081F0C3D0B1E00895C0C0672F782F882799
S11305C0B85F39F0B93FCCF3869577956795B395C5
S11305D0D9F73EF490958095709561957F4F8F4F34
S11305E09F4F0895E89409C097FB3EF49095809539
S11305F0709561957F4F8F4F9F4F9923A9F0F92FE5
S113060096E9BB279395F695879577956795B79562
S1130610F111F8CFFAF4BB0F11F460FF1BC06F5F48
S11306207F4F8F4F9F4F16C0882311F096E911C05A
S1130630772321F09EE8872F762F05C0662371F07B
S113064096E8862F70E060E02AF09A95660F771F8F
S1130650881FDAF7880F9695879597F90895990F6B
S11306600008550FAA0BE0E8FEEF16161706E80778
S1130670F907C0F012161306E407F50798F0621B99
S1130680730B840B950B39F40A2661F0232B242B6E
S1130690252B21F408950A2609F4A140A6958FEF8D
S11306A0811D811D089597F99F6780E870E060E0DF
S11306B008959FEF80EC089500240A9416161706F7
S11306C018060906089500240A941216130614063F
S11306D005060895092E0394000C11F4882352F0A2
S11306E0BB0F40F4BF2B11F460FF04C06F5F7F4F5A
S11306F08F4F9F4F089557FD9058440F551F59F041
S11307005F3F71F04795880F97FB991F61F09F3FFA
S113071079F087950895121613061406551FF2CF23
S11307204695F1DF08C0161617061806991FF1CF73
S113073086957105610508940895E894BB2766279A
S11307407727CB0197F908958ADF08F48FEF08958E
S11307500BD0C0CFB1DF28F0B6DF18F0952309F035
S1130760A2CFA7CF1124EACFC6DFA0F3959FD1F380
S1130770950F50E0551F629FF001729FBB27F00D4B
S1130780B11D639FAA27F00DB11DAA1F649F6627A0
S1130790B00DA11D661F829F2227B00DA11D621FEF
S11307A0739FB00DA11D621F839FA00D611D221FA9
S11307B0749F3327A00D611D231F849F600D211D8D
S11307C0822F762F6A2F11249F5750408AF0E1F030
S11307D088234AF0EE0FFF1FBB1F661F771F881F79
S11307E091505040A9F79E3F510570F05CCFA6CFC1
S11307F05F3FECF3983EDCF3869577956795B79564
S1130800F795E7959F5FC1F7FE2B880F911D96958D
S1130810879597F90895052E97FB16F400940FD049
S113082057FD05D014D007FC02D046F408C05095FB
S11308304095309521953F4F4F4F5F4F08959095C8
S11308408095709561957F4F8F4F9F4F0895A1E2DA
S11308501A2EAA1BBB1BFD010DC0AA1FBB1FEE1F36
S1130860FF1FA217B307E407F50720F0A21BB30B81
S1130870E40BF50B661F771F881F991F1A9469F7FD
S113088060957095809590959B01AC01BD01CF0159
S10908900895F894FFCF67
S9030000FC
