:100000000C942A000C94C6010C943C000C943C0007
:100010000C943C000C943C000C943C000C943C0070
:100020000C943C000C943C000C943C000C94FE029C
:100030000C943C000C943C000C943C000C943C0050
:100040000C943C000C943C000C943C000C943C0040
:100050000C943C0011241FBECFE5D8E0DEBFCDBF1D
:1000600021E0A0E6B0E001C01D92AC34B207E1F798
:100070000E9490020C94BD050C9400000F931F93F6
:10008000909371008093700000937200109373003E
:1000900020937400309375005093470140934601BC
:1000A0006115710539F481E083BF10926F001092E1
:1000B0006E0017C06130710549F481E08EBD81E0AA
:1000C00090E090936F0080936E000BC062307105DA
:1000D00041F481E085BD82E090E090936F008093D1
:1000E0006E008091700090917100069729F480E471
:1000F0008BBF83E085BF15C0809170009091710027
:10010000079729F480E88BBF8CE085BF0AC08091F7
:10011000700090917100029721F480EC8BBF8DE00C
:1001200085BF789410926900109268001092770051
:1001300010927600209176003091770080914601F0
:100140009091470128173907F4F4E0917600F09177
:100150007700EE0FFF1FE258FF4F1182108280914F
:1001600076009091770001969093770080937600C7
:10017000209176003091770080914601909147015F
:100180002817390714F31F910F9108958F929F92AA
:10019000AF92BF92CF92DF92EF92FF920F931F9395
:1001A000CF93DF93EB01B898C09840917E005091B7
:1001B0007F002091680030916900241B350B30933B
:1001C00069002093680010927700109276002091C9
:1001D00046013091470140917600509177002150BF
:1001E0003109421753075CF5E0917600F0917700F2
:1001F000A0917600B0917700AA0FBB1FA058BF4F07
:100200002D913C91EE0FFF1FE258FF4F3183208369
:1002100020917600309177002F5F3F4F3093770029
:10022000209376002091460130914701409176005D
:10023000509177002150310942175307ACF21092C8
:100240006A0010926B0010926C0010926D00209169
:100250006E0030916F00232B39F412BE22B730E0CC
:100260002C173D07D8F31CC020916E0030916F0011
:100270002230310539F414BC24B530E02C173D0789
:10028000D8F30EC020916E0030916F0021303105FF
:1002900039F41DBC1CBC2CB53DB52C173D07D8F35B
:1002A00000914601109147010150110980906A00A8
:1002B00090906B00A0906C00B0906D00C0907200A8
:1002C000D0907300E0907400F0907500BC01990F1D
:1002D000880B990B0E947A049B01AC01C501B40103
:1002E0000E94D0034B015C01C701B6010E94780453
:1002F0009B01AC01C501B4010E94060520E030E07D
:1003000040E752E40E9406056B017C01BE0180E0DB
:1003100090E00E9478049B01AC01C701B6010E94E5
:10032000D0030E944204000F111FF801E258FF4F52
:1003300071836083E0914601F0914701EE0FFF1F4A
:10034000E458FF4F208131818091680090916900CD
:10035000820F931F909369008093680080916800DA
:100360009091690060914601709147010E94730568
:10037000CB01DF91CF911F910F91FF90EF90DF9014
:10038000CF90BF90AF909F908F9008951F920F9243
:100390000FB60F9211242F933F934F935F936F9358
:1003A0007F938F939F93AF93BF93EF93FF9360914E
:1003B0006A0070916B0080916C0090916D0020E05C
:1003C00030E040E85FE30E94640360936A0070934A
:1003D0006B0080936C0090936D00B09B07C081E030
:1003E00090E090937D0080937C0006C08FEF9FEF9C
:1003F00090937D0080937C00FF91EF91BF91AF912E
:100400009F918F917F916F915F914F913F912F912C
:100410000F900FBE0F901F9018954F925F926F92A2
:100420007F928F929F92AF92BF92CF92DF92EF9284
:10043000FF92CF93DF9300D000D0CDB7DEB76B0132
:100440007C0140906000509061006090620070906C
:1004500063008090640090906500A0906600B0906A
:1004600067006091600070916100809162009091DE
:100470006300A70196010E9464036093600070937B
:1004800061008093620090936300C0926400D092F8
:100490006500E0926600F09267002DEC3CEC4CE4C5
:1004A0005DE3C701B6010E94060569837A838B83E9
:1004B0009C832CE933E549EC55E3C301B2010E946A
:1004C00006059B01AC0169817A818B819C810E9428
:1004D00064032B013C01A5019401C701B6010E94F0
:1004E000630325E93FEB46ED53E30E9406059B01BC
:1004F000AC01C301B2010E9464030F900F900F90F2
:100500000F90DF91CF91FF90EF90DF90CF90BF9051
:10051000AF909F908F907F906F905F904F900895D5
:100520008CE090E00E943A0300E012E12AE730E01C
:100530004AE050E061E070E086E090E00E943E001A
:10054000BB9A83B7896683BF89B7816089BF88B743
:10055000816088BF78948091480190914901A09171
:100560004A01B0914B018C389A47A105B10599F722
:1005700060E67AEE80ED97E00E94C600BC01990F1C
:10058000880B990B0E947A0460937800709379002D
:1005900080937A0090937B002091780030917900CD
:1005A00040917A0050917B0060E070E088E493E431
:1005B0000E9463030E940D026B017C018CB7682FBF
:1005C00070E080E090E00E947A04A70196010E940A
:1005D00064030E9449046CBF6091780070917900B7
:1005E00080917A0090917B000E9449040E9445030B
:1005F00080E20E9441038CB78CB7ADCF1F920F925F
:100600000FB60F9211242F938F939F93AF93BF93A5
:100610008091480190914901A0914A01B0914B010C
:100620000196A11DB11D8093480190934901A093AB
:100630004A01B0934B018091480190914901A091EA
:100640004A01B0914B018D389A47A105B10544F09C
:10065000109248011092490110924A0110924B01E8
:10066000BF91AF919F918F912F910F900FBE0F90DF
:100670001F90189590BD89B988E18AB98EE880BD30
:1006800008955D9BFECF8CB908950F931F93CF9370
:10069000DF936A3071058105910560F02AE030E052
:1006A00040E050E00E948705062FCA01B9010E9470
:1006B0004503602F80E3860F0E944103DF91CF91B5
:1006C0001F910F9108955058BB27AA270E947B03C2
:1006D0000C94CC040E94BE0438F00E94C50420F0A3
:1006E00039F49F3F19F426F40C94BB040EF4E09502
:1006F000E7FB0C94B504E92F0E94DD0458F3BA1708
:10070000620773078407950720F079F4A6F50C9427
:10071000FF040EF4E0950B2EBA2FA02D0B01B901AA
:1007200090010C01CA01A0011124FF27591B99F067
:10073000593F50F4503E68F11A16F040A22F232F73
:10074000342F4427585FF3CF469537952795A795C3
:10075000F0405395C9F77EF41F16BA0B620B730B6A
:10076000840BBAF09150A1F0FF0FBB1F661F771FDB
:10077000881FC2F70EC0BA0F621F731F841F48F490
:10078000879577956795B795F7959E3F08F0B0CF19
:100790009395880F08F09927EE0F97958795089500
:1007A0000E94E4030C94CC040E94C50458F00E94FB
:1007B000BE0440F029F45F3F29F00C94B5045111B8
:1007C0000C9400050C94BB040E94DD0468F399238B
:1007D000B1F3552391F3951B550BBB27AA2762173D
:1007E0007307840738F09F5F5F4F220F331F441F4A
:1007F000AA1FA9F335D00E2E3AF0E0E832D091507E
:100800005040E695001CCAF72BD0FE2F29D0660F6A
:10081000771F881FBB1F261737074807AB07B0E8AD
:1008200009F0BB0B802DBF01FF2793585F4F3AF0B3
:100830009E3F510578F00C94B5040C9400055F3F81
:10084000E4F3983ED4F3869577956795B795F79539
:100850009F5FC9F7880F911D9695879597F9089521
:10086000E1E0660F771F881FBB1F621773078407BD
:10087000BA0720F0621B730B840BBA0BEE1F88F7CC
:10088000E09508950E9449046894B1110C94000504
:1008900008950E94E50488F09F5798F0B92F992792
:1008A000B751B0F0E1F0660F771F881F991F1AF05B
:1008B000BA95C9F714C0B13091F00E94FF04B1E0BD
:1008C00008950C94FF04672F782F8827B85F39F0BC
:1008D000B93FCCF3869577956795B395D9F73EF4F4
:1008E00090958095709561957F4F8F4F9F4F08959C
:1008F000E89409C097FB3EF49095809570956195BA
:100900007F4F8F4F9F4F9923A9F0F92F96E9BB276F
:100910009395F695879577956795B795F111F8CFEB
:10092000FAF4BB0F11F460FF1BC06F5F7F4F8F4F56
:100930009F4F16C0882311F096E911C0772321F04C
:100940009EE8872F762F05C0662371F096E8862FE4
:1009500070E060E02AF09A95660F771F881FDAF73B
:10096000880F9695879597F9089597F99F6780E87E
:1009700070E060E008959FEF80EC089500240A94F1
:100980001616170618060906089500240A9412166A
:100990001306140605060895092E0394000C11F49D
:1009A000882352F0BB0F40F4BF2B11F460FF04C04A
:1009B0006F5F7F4F8F4F9F4F089557FD9058440FA3
:1009C000551F59F05F3F71F04795880F97FB991FAE
:1009D00061F09F3F79F0879508951216130614066B
:1009E000551FF2CF4695F1DF08C0161617061806F8
:1009F000991FF1CF86957105610508940895E894D3
:100A0000BB2766277727CB0197F908950E94190520
:100A10000C94CC040E94BE0438F00E94C50420F05F
:100A2000952311F00C94B5040C94BB0411240C9480
:100A300000050E94DD0470F3959FC1F3950F50E00F
:100A4000551F629FF001729FBB27F00DB11D639F80
:100A5000AA27F00DB11DAA1F649F6627B00DA11D26
:100A6000661F829F2227B00DA11D621F739FB00DCC
:100A7000A11D621F839FA00D611D221F749F33273C
:100A8000A00D611D231F849F600D211D822F762FD5
:100A90006A2F11249F5750409AF0F1F088234AF0B2
:100AA000EE0FFF1FBB1F661F771F881F915050401E
:100AB000A9F79E3F510580F00C94B5040C940005F5
:100AC0005F3FE4F3983ED4F3869577956795B795A5
:100AD000F795E7959F5FC1F7FE2B880F911D9695BF
:100AE000879597F9089597FB072E16F4009407D081
:100AF00077FD09D00E94A90507FC05D03EF490952A
:100B000081959F4F0895709561957F4F0895A1E25B
:100B10001A2EAA1BBB1BFD010DC0AA1FBB1FEE1F77
:100B2000FF1FA217B307E407F50720F0A21BB30BC2
:100B3000E40BF50B661F771F881F991F1A9469F73E
:100B400060957095809590959B01AC01BD01CF019A
:100B50000895AA1BBB1B51E107C0AA1FBB1FA61704
:100B6000B70710F0A61BB70B881F991F5A95A9F756
:0E0B700080959095BC01CD010895F894FFCFBB
:00000001FF
