S016000050535F325F726563696576696E672E73726563BF
S113000045C0000058C0000056C0000054C00000A5
S113001052C0000050C000004EC000004CC00000A0
S11300204AC0000048C0000046C0000044C00000B0
S113003042C0000040C000003EC000003CC00000C0
S11300403AC0000038C0000042C0000034C00000C4
S113005032C0000030C000002EC000002CC00000E0
S11300602AC0000028C0000026C0000024C00000F0
S113007022C0000020C000001EC000001CC0000000
S11300801AC0000018C0000016C0000011241FBED2
S1130090CFEFD0E1DEBFCDBF11E0A0E0B1E0E8EDED
S11300A0F1E000E00BBF02C007900D92A031B10750
S11300B0D9F702D08FC0A4CF60E08CE090E034D0B8
S11300C080E050D060E080E091E072D0FFCF1F92DA
S11300D00F920FB60F9211240BB60F922F933F93EA
S11300E04F935F936F937F938F939F93AF93BF933C
S11300F0EF93FF9380E04ED060E03ED060E08DE06F
S11301003BD0FF91EF91BF91AF919F918F917F91E0
S11301106F915F914F913F912F910F900BBE0F9074
S11301200FBE0F901F9018957894662379F09093E2
S1130130980080939900EAE9F0E0808188618083E7
S1130140EDE9F0E0808186608083089590939000CB
S113015089B98AB188618AB9E5E9F0E0808186606D
S113016080830895882331F0EAE9F0E08081806893
S113017080830895579A0895662341F0EBE9F0E0EF
S1130180908195FFFDCF80939C0008955D9BFECFE9
S11301908CB90895882341F0EBE9F0E0808188234D
S11301A0ECF780919C0008955F9BFECF8CB108957D
S11301B01F93CF93DF93EC018881882339F0162FA6
S11301C02196612FD9DF89918111FBCFDF91CF91E6
S10B01D01F910895F894FFCF7C
S11301D8557020616E642052756E6E696E672100D9
S9030000FC
