S01F0000636F6D706173732073656E736F72206E746572666163652E73726563ED
S11300000C9441000C9453000C9453000C94530032
S11300100C9453000C9453000C9453000C94530010
S11300200C9453000C9453000C9453000C94530000
S11300300C9453000C9453000C9453000C945300F0
S11300400C9453000C9453000C9453000C945300E0
S11300500C945300084AD73B3BCE016E84BCBFFDD1
S1130060C12F3D6C74319ABD56833DDA3D00C77F84
S113007011BED9E4BB4C3E916BAAAABE000000801D
S11300803F0011241FBECFE5D8E0DEBFCDBF20E086
S1130090A0E6B0E001C01D92A836B207E1F70E94C5
S11300A055000C9414040C940000CF93DF9300D0FB
S11300B0CDB7DEB71A8219820E94AD008CE090E0C1
S11300C00E944E010E94D1009A83898369817A81BA
S11300D0882777FD8095982F0E94590180E20E941D
S11300E055018DE00E945501EDCF16BE94EA96BFEE
S11300F006B607FEFDCF91B1987F983079F483B9A5
S113010084E886BF06B607FEFDCF91B1987F98318B
S113011039F081E0903429F480E0089581E0089575
S113012080E0089583B984E886BF06B607FEFDCF54
S113013091B1987F81E0983209F480E0089584ECCD
S113014086BF06B607FEFDCF83B1089584E886BF57
S113015006B607FEFDCF83B10895CF9380E280B940
S11301608CE30E94750080E00E94920080E70E9468
S11301709200C4E9C6BF8CE30E94750081E00E942E
S1130180920080EA0E949200C6BF8CE30E94750030
S113019082E00E94920080E00E949200C6BFCF914C
S11301A00895CF92DF92EF92FF92CF938CE30E9457
S11301B0750083E00E949200C4E9C6BF8DE30E94EB
S11301C075000E949F0010926600809367000E9451
S11301D09F002091660030916700282B30936700C0
S11301E0209366000E949F00109262008093630037
S11301F00E949F002091620030916300282B30936D
S11302006300209362000E949F0010926400809318
S113021065000E94A6002091640030916500282B9F
S11302203093650020936400C6BF609166007091AE
S11302306700882777FD8095982F0E94F6026B014E
S11302407C016091640070916500882777FD80953A
S1130250982F0E94F602A70196010E940D0220E049
S113026030E044E353E40E94AE032BED3FE049E465
S113027050E40E94600220E030E044E353E40E9432
S11302809A010E94C8027093610060936000CB01E0
S1130290CF91FF90EF90DF90CF90089590BD89B9F2
S11302A088E18AB98EE880BD08955D9BFECF8CB944
S11302B008950F931F93CF93DF936A3071058105DF
S11302C0910560F02AE030E040E050E00E947701C0
S11302D0062FCA01B9010E945901602F80E3860FDD
S11302E00E945501DF91CF911F910F910895A1E2D2
S11302F01A2EAA1BBB1BFD010DC0AA1FBB1FEE1F9C
S1130300FF1FA217B307E407F50720F0A21BB30BE6
S1130310E40BF50B661F771F881F991F1A9469F762
S113032060957095809590959B01AC01BD01CF01BE
S113033008955058BB27AA270ED0CFC1C0D130F0A2
S1130340C5D120F031F49F3F11F41EF490C10EF496
S1130350E095E7FB86C1E92FD1D180F3BA17620794
S113036073078407950718F071F49EF5E9C10EF43C
S1130370E0950B2EBA2FA02D0B01B90190010C01B1
S1130380CA01A0011124FF27591B99F0593F50F4C9
S1130390503E68F11A16F040A22F232F342F442721
S11303A0585FF3CF469537952795A795F040539519
S11303B0C9F77EF41F16BA0B620B730B840BBAF0E9
S11303C09150A1F0FF0FBB1F661F771F881FC2F754
S11303D00EC0BA0F621F731F841F48F48795779568
S11303E06795B795F7959E3F08F0B3CF9395880F1F
S11303F008F09927EE0F97958795089560D158F0E6
S113040080E891E009F49EEF61D128F040E851E0E2
S113041059F45EEF09C02BC193C1E92FE0786ED186
S113042068F3092E052AC1F3261737074807590729
S113043038F00E2E07F8E02569F0E025E0640AC0E4
S1130440EF6307F8009407FADB01B9019D01DC01B1
S1130450CA01AD01EF9343D040D10AD05F91552337
S113046031F02BED3FE049E450FD49EC63CF0895B2
S1130470DF93DD27B92FBF7740E85FE31616170631
S113048048075B0710F4D92F62D19F938F937F9312
S11304906F93C7D1E4E5F0E0EDD01FD12F913F91E8
S11304A04F915F9167D1DD2349F09058A2EA2AED7C
S11304B03FE049EC5FE3D0785D274DDFDF910DC16C
S11304C00CD00BC103D140F0FAD030F021F45F3FDF
S11304D019F0C7C0511135C1CAC010D198F399237E
S11304E0C9F35523B1F3951B550BBB27AA276217F4
S11304F07307840738F09F5F5F4F220F331F441F39
S1130500AA1FA9F333D00E2E3AF0E0E830D0915070
S11305105040E695001CCAF729D0FE2F27D0660F5D
S1130520771F881FBB1F261737074807AB07B0E89C
S113053009F0BB0B802DBF01FF2793585F4F2AF0B2
S11305409E3F510568F08DC0FCC05F3FECF3983EC0
S1130550DCF3869577956795B795F7959F5FC9F70F
S1130560880F911D9695879597F90895E1E0660F98
S1130570771F881FBB1F621773078407BA0720F011
S1130580621B730B840BBA0BEE1F88F7E09508957A
S1130590BDD088F09F5790F0B92F9927B751A0F09C
S11305A0D1F0660F771F881F991F1AF0BA95C9F703
S11305B012C0B13081F0C4D0B1E00895C1C0672F3A
S11305C0782F8827B85F39F0B93FCCF386957795B3
S11305D06795B395D9F73EF490958095709561959C
S11305E07F4F8F4F9F4F0895E89409C097FB3EF4C7
S11305F090958095709561957F4F8F4F9F4F99236C
S1130600A9F0F92F96E9BB279395F69587957795E9
S11306106795B795F111F8CFFAF4BB0F11F460FFA9
S11306201BC06F5F7F4F8F4F9F4F16C0882311F001
S113063096E911C0772321F09EE8872F762F05C015
S1130640662371F096E8862F70E060E02AF09A95B0
S1130650660F771F881FDAF7880F9695879597F9A5
S1130660089597F99F6780E870E060E008959FEF30
S113067080EC0895DF93CF931F930F93FF92EF9233
S1130680DF927B018C01689405C0DA2EEF0172D0F1
S1130690FE01E894A5912591359145915591AEF3CC
S11306A0EF0159DEFE019701A801DA9479F7DF9092
S11306B0EF90FF900F911F91CF91DF910895002447
S11306C00A941616170618060906089500240A94B3
S11306D012161306140605060895092E0394000C39
S11306E011F4882352F0BB0F40F4BF2B11F460FFC8
S11306F004C06F5F7F4F8F4F9F4F089557FD9058F1
S1130700440F551F59F05F3F71F04795880F97FBD1
S1130710991F61F09F3F79F087950895121613068B
S11307201406551FF2CF4695F1DF08C016161706BA
S11307301806991FF1CF86957105610508940895EF
S1130740E894BB2766277727CB0197F908959B0187
S1130750AC0160E070E080E89FE3B2CE0BD0BDCF87
S1130760AEDF28F0B3DF18F0952309F07ACF7FCFFE
S11307701124E7CFC3DFA0F3959FD1F3950F50E089
S1130780551F629FF001729FBB27F00DB11D639F3F
S1130790AA27F00DB11DAA1F649F6627B00DA11DE5
S11307A0661F829F2227B00DA11D621F739FB00D8B
S11307B0A11D621F839FA00D611D221F749F3327FB
S11307C0A00D611D231F849F600D211D822F762F94
S11307D06A2F11249F5750408AF0E1F088234AF091
S11307E0EE0FFF1FBB1F661F771F881F91505040DD
S11307F0A9F79E3F510570F034CFA3CF5F3FECF3D0
S1130800983EDCF3869577956795B795F795E795C8
S11308109F5FC1F7FE2B880F911D9695879597F9D9
S10F082008959B01AC019ACFF894FFCF1F
S9030000FC
