:1000000045C0000060C0000077C000005CC0000078
:100010005AC0000058C0000056C0000054C0000084
:1000200052C0000050C000004EC000004CC0000094
:100030004AC0000048C0000046C0000044C00000A4
:1000400042C0000040C000003EC000003CC00000B4
:100050003AC0000038C0000036C0000034C00000C4
:1000600032C0000030C000002EC000002CC00000D4
:100070002AC0000028C0000026C0000024C00000E4
:1000800022C0000020C000001EC0000011241FBEBE
:10009000CFEFD0E1DEBFCDBF11E0A0E0B1E0E6ECF4
:1000A000F2E000E00BBF02C007900D92A230B10752
:1000B000D9F721E0A2E0B1E001C01D92A430B2075F
:1000C000E1F702D0FEC09CCF61E08CE090E053D01D
:1000D00083EF89BFEAE6F0E080818FEF80839AB7F3
:1000E0008ABF7894409100015091010161E070E075
:1000F00080E090E06CD0F6CF1F920F920FB60F9277
:1001000011240BB60F922F933F934F935F936F93EE
:100110007F938F939F93AF93BF93EF93FF936091E0
:100120000201709103016F5F7F4F70930301609331
:1001300002014091000150910101072E000C880B33
:10014000990B45D060910001709101018DE031D093
:10015000FF91EF91BF91AF919F918F917F916F919F
:100160005F914F913F912F910F900BBE0F900FBE5B
:100170000F901F9018957894662379F090939800CB
:1001800080939900EAE9F0E0808188618083EDE95D
:10019000F0E080818660808308959093900089B913
:1001A0008AB188618AB9E5E9F0E080818660808360
:1001B0000895662341F0EBE9F0E0908195FFFDCFD3
:1001C00080939C0008955D9BFECF8CB90895BF92EB
:1001D000CF92DF92EF92FF920F931F93CF93DF9313
:1001E0006B017C01C42F99235CF4642F8DE2E1DF65
:1001F000F094E094D094C094C11CD11CE11CF11C7B
:100200008AE0C816D104E104F1047CF0C701B6010C
:100210002AE030E040E050E016D069017A01B62EC5
:100220004C2FC701B601D3DFCB2C6C2F80E38C0D94
:10023000C0DFDF91CF911F910F91FF90EF90DF9082
:10024000CF90BF900895052E97FB16F400940FD021
:1002500057FD05D014D007FC02D046F408C05095D5
:100260004095309521953F4F4F4F5F4F08959095A2
:100270008095709561957F4F8F4F9F4F0895A1E2B4
:100280001A2EAA1BBB1BFD010DC0AA1FBB1FEE1F10
:10029000FF1FA217B307E407F50720F0A21BB30B5B
:1002A000E40BF50B661F771F881F991F1A9469F7D7
:1002B00060957095809590959B01AC01BD01CF0133
:0602C0000895F894FFCF41
:0202C600010035
:00000001FF
