S0140000636F6C6F725F73656E736F722E73726563F8
S113000045C000004BC0000049C0000047C00000CC
S113001045C0000043C0000041C000003FC00000D4
S11300203DC000003BC0000039C0000037C00000E4
S113003035C0000033C0000031C000002FC00000F4
S11300402DC000002BC0000029C0000027C0000004
S113005025C0000023C0000021C000001FC0000014
S11300601DC000001BC0000019C0000017C0000024
S113007015C0000013C0000011C000000FC0000034
S11300800DC000000BC0000009C0000011241FBEF9
S1130090CFEFD0E1DEBFCDBF02D0B2C0B1CF61E0BF
S11300A08CE090E007D041E064E670E080E090E00E
S11300B02DD0F9CF7894662379F0909398008093AB
S11300C09900EAE9F0E0808188618083EDE9F0E05D
S11300D080818660808308959093900089B98AB165
S11300E088618AB9E5E9F0E08081866080830895BB
S11300F0662341F0EBE9F0E0908195FFFDCF80931A
S11301009C0008955D9BFECF8CB90895BF92CF9259
S1130110DF92EF92FF920F931F93CF93DF936B01C4
S11301207C01C42F99235CF4642F8DE2E1DFF09409
S1130130E094D094C094C11CD11CE11CF11C8AE051
S1130140C816D104E104F1047CF0C701B6012AE029
S113015030E040E050E016D069017A01B62E4C2F11
S1130160C701B601D3DFCB2C6C2F80E38C0DC0DF2D
S1130170DF91CF911F910F91FF90EF90DF90CF907F
S1130180BF900895052E97FB16F400940FD057FDE9
S113019005D014D007FC02D046F408C05095409511
S11301A0309521953F4F4F4F5F4F0895909580951F
S11301B0709561957F4F8F4F9F4F0895A1E21A2E3E
S11301C0AA1BBB1BFD010DC0AA1FBB1FEE1FFF1FF7
S11301D0A217B307E407F50720F0A21BB30BE40B47
S11301E0F50B661F771F881F991F1A9469F760958E
S11301F07095809590959B01AC01BD01CF01089548
S1070200F894FFCF9C
S9030000FC
