S01700005053325F494E544552464143494E472E73726563AF
S113000012C02CC02BC02AC029C028C027C026C0BB
S113001025C024C023C022C021C020C01FC01EC0D0
S11300201DC01CC01BC011241FBECFE5D4E0DEBF21
S1130030CDBF10E0A0E6B0E0E4E7F3E002C0059035
S11300400D92A839B107D9F720E0A8E9B0E001C0C2
S11300501D92AD3BB207E1F702D08AC1D1CF8CE04B
S113006090E030D189E890E038D155D0C6EAD0E0AC
S113007016D18FEC97E00197F1F700C000008B8157
S113008080959C8184FF06C068E572E080E090E082
S113009032D1EECF86FF06C068E572E080E090E0E2
S11300A02AD1E6CF85FF03C082E713D1E1CF8823AD
S11300B01CF48CE60ED1DCCF8CE60BD1D9CF8FB9F2
S11300C0779BFECF80E58A95F1F78FB10895CF92A3
S11300D0DF92EF92FF920F931F93CF93DF936623E8
S11300E089F07C016C01C60ED11CEC018E010E1945
S11300F01F098991E4DFF801EA55FF4F8083CC158D
S1130100DD05A1F7DF91CF911F910F91FF90EF9043
S1130110DF90CF900895CF93DF93CDB7DEB7AB9741
S11301200FB6F894DEBF0FBECDBF87B38C6287BB1A
S1130130BC98C49A8DE78DB985E0E0E6F0E0DE0175
S1130140119601900D928A95E1F789E0E5E6F0E0D9
S1130150DE01169601900D928A95E1F789E0EEE6AC
S1130160F0E0DE011F9601900D928A95E1F789E097
S1130170E7E7F0E0DE01589601900D928A95E1F7E9
S1130180C2981092BC00109298001092BB0065E0D7
S1130190CE0101969CDFC29A8FEC97E00197F1F7AC
S11301A000C000008FEC97E00197F1F700C0000059
S11301B0C2981092BC00109298001092BB0069E0A3
S11301C0CE01069684DFC29A8FEC97E00197F1F78F
S11301D000C000008FEC97E00197F1F700C0000029
S11301E0C2981092BC00109298001092BB0069E073
S11301F0CE010F966CDFC29A8FEC97E00197F1F76E
S113020000C000008FEC97E00197F1F700C00000F8
S1130210C2981092BC00109298001092BB0069E042
S1130220CE01489654DFC29A8FEC97E00197F1F71C
S113023000C000008FEC97E00197F1F700C00000C8
S113024089E0E0E8F0E0DE01919601900D928A9554
S1130250E1F71BA61AA68AA59BA50A97BCF4EAA5F2
S1130260FBA5AAA5BBA581E290E08C0F9D1FA80F5A
S1130270B91F8C91E356FF4F80838AA59BA50196F5
S11302809BA78AA78AA59BA50A974CF3AB960FB6A2
S1130290F894DEBF0FBECDBFDF91CF910895C29811
S11302A01092BC00109298001092BB0069E08DE996
S11302B090E00DDFC29A8FE99FE00197F1F700C04B
S11302C00000089590BD89B988E18AB98EE880BD9F
S11302D008955D9BFECF8CB90895CF93DF93EC0115
S11302E08881882329F02196F4DF89918111FCCF3C
S11302F0DF91CF9108950F931F93CF93DF936A30CB
S113030071058105910550F02AE030E040E050E0AD
S11303100DD0062FCA01B901EEDF602F80E3860FEE
S1130320D8DFDF91CF911F910F910895A1E21A2E8A
S1130330AA1BBB1BFD010DC0AA1FBB1FEE1FFF1F85
S1130340A217B307E407F50720F0A21BB30BE40BD5
S1130350F50B661F771F881F991F1A9469F760951C
S11303607095809590959B01AC01BD01CF010895D6
S1070370F894FFCF2B
S11303740143000100014400010300000000014D99
S1130384000001FFFFFFFF014300005A5A5A5A5A62
S1130394014200FF0000000000557020616E6420DB
S10B03A472756E6E696E67004C
S9030000FC
