:1000000045C0000053C0000051C000004FC00000B8
:100010004DC000004BC0000049C0000047C00000B8
:1000200045C0000043C0000041C000003FC00000C8
:100030003DC000003BC0000039C0000037C00000D8
:1000400035C0000033C0000031C000002FC00000E8
:100050002DC000002BC0000029C0000027C00000F8
:1000600025C0000023C0000021C000001FC0000008
:100070001DC000001BC0000019C0000017C0000018
:1000800015C0000013C0000011C0000011241FBEE5
:10009000CFEFD0E1DEBFCDBF21E0A0E0B1E001C0F5
:1000A0001D92A030B207E1F72FD08CC0A9CF3E9AA5
:1000B00087B1817E87B9389A379A86B1866086B9CA
:1000C00008958FB582608FBD8EB588618EBD8FB566
:1000D000806C8FBD8EB581608EBD8FEF9FEF97BD19
:1000E00086BD1DBC1CBC08952FEF3FEFDC0133D053
:1000F0002FEF33E040E050E012D0209530953BBD2B
:100100002ABD1DBC1CBC0895BD9AD1DFDADF369A2A
:100110003699FECF84B195B1E7DF369AF9CF052E37
:1001200097FB16F400940FD057FD05D01AD007FCAA
:1001300002D046F408C050954095309521953F4F28
:100140004F4F5F4F089590958095709561957F4FC3
:100150008F4F9F4F089527D0B7FF0895821B930BB1
:100160000895A1E21A2EAA1BBB1BFD010DC0AA1FF8
:10017000BB1FEE1FFF1FA217B307E407F50720F010
:10018000A21BB30BE40BF50B661F771F881F991F8B
:100190001A9469F760957095809590959B01AC01D4
:1001A000BD01CF010895A29FB001B39FC001A39FDD
:1001B000700D811D1124911DB29F700D811D1124A0
:0801C000911D0895F894FFCF92
:00000001FF
