S0100000736F6B68796F6B752E7372656397
S11300000C9446000C9465000C9465000C946500F7
S11300100C9465000C9465000C9485010C94BA0151
S11300200C94EF010C9465000C9465000C9465002D
S11300300C9465000C9465000C9465000C946500A8
S11300400C9465000C9465000C9465000C94650098
S11300500C9465000C9465000C9465000C94650088
S11300600C9465000C9465000C9465000C94650078
S11300700C9465000C9465000C9465000C94650068
S11300800C9465000C9465000C94650011241FBE4B
S1130090CFEFD0E1DEBFCDBF11E0A0E0B1E0E8E8F2
S11300A0F4E000E00BBF02C007900D92A830B10746
S11300B0D9F721E0A8E0B1E001C01D92A832B2074F
S11300C0E1F70E9476010C9442020C9400008FEF39
S11300D087BB84BB8FB58A6A8FBD8EB589618EBD9F
S11300E015BA8FEF9FEF97BD86BDE0E1F1E0118671
S11300F0108681E090E09387828782E090E0978782
S1130100868783E090E0918B808B84E090E0958BF0
S1130110848B85E090E0978B868B0895EAE6F0E087
S113012080818A62808388EA8ABF80EE89BF0895CD
S113013081309105D9F41BBC1ABCE0E1F1E0608583
S113014071854285538524B381E090E0FC0102C0AF
S1130150EE0FFF1F4A95E2F702C0880F991F6A95B8
S1130160E2F78E2B9F2B822B84BB0895823091055E
S1130170D9F419BC18BCE0E1F1E0668577854089C3
S1130180518924B381E090E0FC0102C0EE0FFF1F0F
S11301904A95E2F702C0880F991F6A95E2F78E2B01
S11301A09F2B822B84BB08950397E1F4109279006E
S11301B010927800E0E1F1E06489758946895789F5
S11301C024B381E090E0FC0102C0EE0FFF1F4A95CA
S11301D0E2F702C0880F991F6A95E2F78E2B9F2BD6
S11301E0822B84BB08950097A9F5E0E0F1E08281B9
S11301F093819BBD8ABD8481958199BD88BD86818B
S11302009781909379008093780015BAE0E1F1E04A
S113021020853185A685B7856489758945B381E0D4
S113022090E0FC0102C0EE0FFF1FAA95E2F7DC018B
S113023002C0AA0FBB1F2A95E2F79D012E2B3F2B6C
S113024002C0880F991F6A95E2F7822B932B842BA7
S113025085BB089581309105B1F48091020190919C
S113026003019BBD8ABD15BA409118015091190133
S113027025B381E090E002C0880F991F4A95E2F708
S1130280822B85BB089582309105B1F480910401DD
S11302909091050199BD88BD15BA40911E015091F8
S11302A01F0125B381E090E002C0880F991F4A9591
S11302B0E2F7822B85BB08950397B9F48091060178
S11302C090910701909379008093780015BA40913A
S11302D024015091250125B381E090E002C0880FEC
S11302E0991F4A95E2F7822B85BB08950E94670007
S11302F00E948E0060E08CE090E00E94240280E086
S113030090E00E94F3007894FFCF1F920F920FB6F3
S11303100F9211240BB60F922F933F934F935F9339
S11303206F937F938F939F93AF93BF93EF93FF93B9
S1130330E8E0F1E082819381019693838283828154
S11303409381019721F481E090E00E949800FF914D
S1130350EF91BF91AF919F918F917F916F915F9139
S11303604F913F912F910F900BBE0F900FBE0F90A6
S11303701F9018951F920F920FB60F9211240BB66F
S11303800F922F933F934F935F936F937F938F932A
S11303909F93AF93BF93EF93FF93E8E0F1E08481E1
S11303A0958101969583848384819581019721F4B5
S11303B082E090E00E949800FF91EF91BF91AF918D
S11303C09F918F917F916F915F914F913F912F9169
S11303D00F900BBE0F900FBE0F901F9018951F9299
S11303E00F920FB60F9211240BB60F922F933F93D7
S11303F04F935F936F937F938F939F93AF93BF9329
S1130400EF93FF93E8E0F1E086819781019697836B
S1130410868386819781019721F483E090E00E948E
S11304209800FF91EF91BF91AF919F918F917F9130
S11304306F915F914F913F912F910F900BBE0F9051
S11304400FBE0F901F9018957894662379F09093BF
S1130450980080939900EAE9F0E0808188618083C4
S1130460EDE9F0E0808186608083089590939000A8
S113047089B98AB188618AB9E5E9F0E0808186604A
S10B048080830895F894FFCF76
S10B0488000099199919991952
S9030000FC
