:100000004DC000005BC0000059C0000057C0000098
:1000100055C0000053C0000051C000004FC0000098
:100020004DC000004BC0000049C0000047C00000A8
:1000300045C0000043C0000041C000003FC00000B8
:100040003DC000003BC0000039C0000037C00000C8
:1000500035C000003EC0000031C000002FC00000CD
:100060002DC000002BC0000029C0000027C00000E8
:1000700025C0000023C0000021C000001FC00000F8
:100080001DC000001BC0000019C0000086009100C8
:100090009C00A700B200BD00C800D30011241FBE01
:1000A000CFEFD0E1DEBFCDBF21E0A0E0B1E001C0E5
:1000B0001D92AE30B207E1F70AD098C0A1CF329AB4
:1000C0003E9A86B1886886B97894369A0895F7DFA3
:1000D000FFCF1F920F920FB60F9211240BB60F9203
:1000E0002F933F938F939F93AF93BF93EF93FF9380
:1000F00024B1E7B18E2F90E0FC01E054F109E83023
:10010000F10508F05AC0EA5BFF4F67C035B1822F96
:1001100090E0932B909301018093000181E487B9D3
:100120004CC035B1822F90E0932B909303018093C4
:10013000020182E487B941C035B1822F90E0932B50
:10014000909305018093040183E487B936C035B1EB
:10015000822F90E0932B909307018093060184E413
:1001600087B92BC035B1822F90E0932B9093090172
:100170008093080185E487B920C035B1822F90E0D3
:10018000932B90930B0180930A0186E487B915C0E5
:1001900035B1822F90E0932B90930D0180930C0149
:1001A00087E487B90AC035B1822F90E0932B9093F2
:1001B0000F0180930E0180E487B9369AFF91EF9189
:1001C000BF91AF919F918F913F912F910F900BBE57
:1001D0000F900FBE0F901F901895EE0FFF1F002479
:1001E000001C0BBE0790F691E02D0994F894FFCF08
:00000001FF
